:1000000000308A0034280000FF00030E8301A100A5
:100010000A08A0008A010408A2007708A300780853
:10002000A4007908A5007A08A600831383120B1E8A
:100030001B288B182C28220884002308F70024088A
:10004000F8002508F9002608FA0020088A00210E89
:100050008300FF0E7F0E09008A110A122F288601E5
:100060008B108A110A121B2883161F149F141F1548
:100070009F1183131F3083050912831290010030F2
:10008000F80092000030831692001F149F141F1571
:100090009F1183121F10F03097059D0501308316C4
:1000A00086000230831286008316011383120B161A
:0800B000C0308B045A286300E4
:02400E00393F38
:00000001FF
;PIC16F877
;CRC=0E0F  CREATED="05-Mar-26 14:49"
