:1000000000308A0019280000213084008313000882
:10001000031918280130F800F701F70B0D28F80B29
:100020000C284A30F700F70B13281628800B0A28F3
:10003000080083161F149F141F159F1107309C0082
:1000400083131F308305003086000330880086014B
:1000500083128601831608148312081C6F288316E6
:1000600086010130831286006430A10004208316CB
:1000700086010230831286006430A10004208316BA
:1000800086010430831286006430A10004208316A8
:1000900086010830831286006430A1000420831694
:1000A00086011030831286006430A100042083167C
:1000B00086012030831286006430A100042083165C
:1000C00086014030831286006430A100042083162C
:1000D00086018030831286006430A10004202A2823
:0200E0006300BB
:02400E00393F38
:00000001FF
;PIC16F877A
;CRC=EB06  CREATED="26-Þub-26 14:29"
