:1000000001308A00C22900000A108A100A118207F2
:1000100028340C3401340634D93AEE3A7310E536FC
:10002000F23200008A22D2224E00C837F3336536FE
:10003000E434EE347A002930840083130008031975
:100040002F280130F800F701F70B2428F80B23289C
:100050004A30F700F70B2A282D28800B21280800AA
:10006000300EF039F7000F300805770488000000E3
:1000700008143A28081008000808F700080E0F397D
:10008000F80008000F3083160805F0388800831246
:1000900008150000081400003C207808B000081083
:1000A0000000081400003C207808AF0008100F3052
:1000B0008316080588008312300EF700F030F7052C
:1000C00077082F04F800080083160810881008111C
:1000D0008312881042207808AF00AF1B6A282D1CBD
:1000E00088102D18881400000811000008102E0E2A
:1000F000AF000F30AF052F08B00030202E080F39A9
:10010000AF00B000302008000F30831608058800CB
:1001100008108810081183128810081108100F3079
:10012000A9001B200130A2002208033C031CA028C8
:100130000330B00030200530A9001B20A20A94280B
:100140000230B00030200530A9001B20A201220897
:10015000033C031CB42822080420A300AD0123089B
:10016000AE006420A20AA7288A110A12D0292A0BFD
:10017000BA28BD284030AB00BE28AB0101302902AF
:10018000AB072B088038AC00AD012C08AE00642012
:1001900008002808073A0319D7280B3A0319DC2866
:1001A000063A0319E428023A0319EA28EF28013035
:1001B000A900AA00B720F428AD010130AE006420E8
:1001C0000230A9001B20F4280130A9000230AA0047
:1001D000B720F428AD011030AE006420F4280130BF
:1001E000AD002808AE00642008000B08A2008B13A5
:1001F000831603178C170C140000000083120C08E0
:100200007F3903193C290313A30003170D080313B7
:10021000A40003170F080313A5002308A800C92092
:10022000240803178D000313250803178F00831676
:100230008C170C140000000083120C0D0E0D7F397A
:1002400003193C290313A30003170D080313A4008B
:1002500003170F080313A5002308A800C9202408CA
:1002600003178D000313250803178F008D0A031948
:100270008F0A0313F82803170313A21B8B17080018
:100280002908F8012802031848292808F7005429EA
:10029000F7010830AA00A80DF70D29087702031806
:1002A000F700F80DAA0B4B2908002030231E303030
:1002B000A4002208F700A21F6529F709F70A7708AA
:1002C000A2002D30A400A31723142208A800643034
:1002D000A90040217708A20030307807A500220845
:1002E000A8000A30A900402130307707A70030303D
:1002F0007807A6002408F700303025020319842966
:10030000A314A31B231598292408A5002030A400BA
:1003100030302602031990292314A31BA314982913
:10032000031D2314031D98292508A6002030A500CD
:1003300023199F29A318A2292318A529A82924082D
:10034000A800C9202508A800C9202608A800C9209F
:100350002708A800C9208A110A12F6292208A90034
:100360002308AA00B72042207808A500A51BB329BE
:10037000881442207808A40088102408F8008A1104
:100380000A12112A0530A10083161F149F141F158D
:100390009F1107309C0083131F308305831284282C
:1003A0000C30A800C9200C3003178D0000308F00DE
:1003B0000313F520123003178D0000308F00031354
:1003C000F5200430A200FA30A9001B20A20BE3297B
:1003D0000C30A800C9206930A800C9203D30A80011
:1003E000C9202108A2001830A30055290430A2001A
:1003F000FA30A9001B20A20BF8290C30A800C92054
:100400000330A9000130AA00B720153003178D0072
:1004100000308F000313F5200630A2000130A30046
:10042000AE297808A0000430A200FA30A9001B20F1
:10043000A20B152A0C30A800C9207A30A800C920C8
:100440003D30A800C9202008A800C920262A630042
:02400E00393F38
:00000001FF
;PIC16F877A
;CRC=79A2  CREATED="05-Mar-26 14:09"
