:1000000003308A00C42B00000A108A100A118207EC
:1000100028340C34013406340C224310CD37F43725
:100020007205C8347A10CB376E3AF237EC3A0000DA
:10003000D02B4D10C432E732F21E25367500353014
:10004000840083130008031933280130F800F701F6
:10005000F70B2828F80B27284A30F700F70B2E2833
:100060003128800B252808003C0EF039F7000F30AE
:10007000060577048600000006143E2806100800D6
:100080000608F700060E0F39F80008008316061060
:1000900086100611831286100F3083160605F0387D
:1000A0008600831206150000061400004020780820
:1000B000BC00061000000614000040207808BB00B9
:1000C00006100F3083160605860083123C0EF700DB
:1000D000F030F70577083B04F8007808BB00BB1B3D
:1000E0004C28391C861039188614000006110000AF
:1000F00006103A0EBB000F30BB053B08BC00342095
:100100003A080F39BB00BC00342008000F308316BA
:100110000605860006108610061183128610061149
:1001200006100F30B5001F200130A7002708033C40
:10013000031CA2280330BC0034200530B5001F206A
:10014000A70A96280230BC0034200530B5001F20D5
:10015000A7012708033C031CB62827080420A80091
:10016000B9012808BA004620A70AA9288A110A124C
:10017000FA2B360BBC28BF284030B700C028B70187
:1001800001303502B70737088038B800B9013808A0
:10019000BA00462008003408073A0319D9280B3A58
:1001A0000319DE28063A0319E628023A0319EC2857
:1001B000F1280130B500B600B920F628B9010130A8
:1001C000BA0046200230B5001F20F6280130B500E5
:1001D0000230B600B920F628B9011030BA00462026
:1001E000F6280130B9003408BA00462008000B0890
:1001F000A7008B13831603178C170C140000000044
:1002000083120C087F3903193E290313A800031732
:100210000D080313A90003170F080313AA002808E9
:10022000B400CB20290803178D0003132A080317F5
:100230008F0083168C170C140000000083120C0D25
:100240000E0D7F3903193E290313A80003170D086B
:100250000313A90003170F080313AA002808B4000A
:10026000CB20290803178D0003132A0803178F00DA
:100270008D0A03198F0A0313FA2803170313A71B08
:100280008B178A110A12012C8E30F7002808F8000B
:100290002708F900FA01F808031D58297908F80021
:1002A000F9010830F702F808031D5829F701602901
:1002B0000310F81B5F29F90DF80DF7035829F813FF
:1002C0008A110A12222C34080319D329BC003808D9
:1002D0000319D329BC07031874297F30BC02031CFF
:1002E000D3290319D32978298130BC070318D329CE
:1002F0003C08F700F801F901FA013508C000C01701
:100300003608BF003708BE001830BC00BD013E1CD7
:10031000A1293B08FA07031C9329F90A031D932915
:10032000F80A0319BD173A08F907031C9A29F80AB5
:100330000319BD173908B600B6173608F8070318B1
:10034000BD17BD0DF80CF90CFA0CC00CBF0CBE0C9F
:100350000310BC0B86290130F7070318D329F81BBB
:10036000B829C00DFA0DF90DF80DF7030319D329BB
:10037000C01FC929FA0A031DC929F90A031DC92981
:10038000F80A031DC929F80CF90CFA0CF70A03192D
:10039000D3293508BD003908BD06BD1FD129F8177E
:1003A000D729F813D729F701F801F901FA01080054
:1003B0008318DD293C3084008313F701F801F9012B
:1003C000FA01BC01BD01BE01BF013B083A0439047A
:1003D000380403191B2A2030C0000310B40DB50DDA
:1003E000B60DB70DBC0DBD0DBE0DBF0D3B083F02D8
:1003F000031D042A3A083E02031D042A39083D025F
:10040000031D042A38083C02031C152A3808BC02C4
:100410003908031C390FBD023A08031C3A0FBE020B
:100420003B08031C3B0FBF020314F70DF80DF90D39
:10043000FA0DC00BED293C088000840A3D088000BD
:10044000840A3E088000840A3F08800008000408EF
:10045000AC002B08AE000319462A2A08B700290869
:10046000B6002808B5002708B400BB01BA01203047
:10047000B9008230B80063217A08AA007908A9007F
:100480007808A8007708A700AE0B2D2A2A08B70025
:100490002908B6002808B5002708B4003408B63C7F
:1004A000B400FA013508B800B5170310B50CB60C46
:1004B000B70CFA0CF90CF80CF70CB40B552AB81F52
:1004C0006C2AF709F809F909FA09F70A0319F80A71
:1004D0000319F90A0319FA0A7A08AA007908A90087
:1004E0007808A8007708A700AA1F832AAC03AC16D7
:1004F000A709A809A909AA09A70A0319A80A03199B
:10050000A90A0319AA0A3B30B3009A30B200CA30D4
:10051000B100B0010A30AE002B080319AC0A8314F5
:100520002730840083132A08B7002908B60028085A
:10053000B5002708B4003308BB003208BA00310800
:10054000B9003008B800D8217808F708031DBB2A85
:100550002B0A2E020319BB2A2C080319BD2A0F39B6
:100560002E020319B52A0318ED2AAC1BED2A2C1B09
:10057000BD2A2030E92A2030AC05AC1ECB2AAC12B3
:100580002B08031DAC037708AC002D30B400CB2042
:100590002C08F700AC012B082E02031DD92A77087E
:1005A000AC002E30B400CB202C08F7002030AC0576
:1005B00000303030AC1EE92AAC122B08031DAC030E
:1005C0007708AC002D30B400CB202C08F700AC012C
:1005D0003030F7077708B400CB2083103308B7001A
:1005E0003208B6003108B5003008B400BB01BA01CA
:1005F000B9010A30B800D8217A08B3007908B200EE
:100600007808B1007708B000AE0B8F2A8A110A1261
:10061000782C0B08A8008B13831603178C170C1467
:100620000000000003183B2B83120C087F390313D2
:10063000A90003170D080313AA0003170F080313DB
:10064000AB002908B400CB202A0803178D00031340
:100650002B0803178F0083168C170C140000000062
:1006600083120313A70B352B382B831603173B2B51
:100670005A2B8316031783120C0D0E0D7F390313AB
:10068000A90003170D080313AA0003170F0803138B
:10069000AB002908B400CB202A0803178D000313F0
:1006A0002B0803178F008D0A03198F0A03100313F9
:1006B000A70B0C2BA81B8B178A110A128D2CAF01CC
:1006C0000408AE002F10831B2F14280EF038AA0048
:1006D000AA07E23EAB00323EAD0028080F39AB0757
:1006E000AB07AD07E93EAC00AC07AC07270E0F39EE
:1006F000AC07AD07AC0DAD0DAD09AD0D27080F3939
:10070000AD07AA0D0730A9000A30AD07AC03031CE2
:10071000852BAC07AB03031C892BAB07AA03031C77
:100720008D2BAA07A903031C912B29308400831366
:1007300007302E052E1384072D30040203192E17BF
:100740000008F700031DAC2B2E1BAC2B2E1ABE2B62
:10075000AE19AC2B2030AF2BAE152E123030F70770
:10076000A8010408A7002810831B28147708B400E8
:10077000CB2027088400831328188317840A2E1F90
:100780009C2B8A110A12942CFF30A60083161F148A
:100790009F141F159F1107309C0083131F30830582
:1007A000091283129001F0309D050030F8000538E1
:1007B0009200F930831692008312261126088316C0
:1007C0008700831207110C30970083161F138312C2
:1007D0001F139F1783169F1783121F1483161F1052
:1007E0009F101F119F112030850000308700831259
:1007F000A60086280C3003178D0000308F000313ED
:10080000F7280430A700FA30B5001F20A70B032CEF
:1008100095012030F8001F08C73978049F00063082
:10082000F700F70B112C00001F151F19152C83164C
:100830001E088312A0001E08A1002108A80020089D
:10084000A70044297A08AA007908A9007808A80016
:100850007708A7007A08B7007908B6007808B500CD
:100860007708B400E530BB00FF30BA001F30B90094
:100870007730B80063217A08A5007908A4007808C9
:10088000A3007708A200A61126088316870083120A
:10089000871526122608831687008312071221085F
:1008A000F9002008F800F90CF80CF90CF80CF90C18
:1008B00078089500F90C790C3039F7001708CF3912
:1008C000770497000C30B400CB205630B400CB2016
:1008D0003D30B400CB20893084002508AA002408CC
:1008E000A9002308A8002208A7000230AB00272A8D
:1008F0002030B400CB205630B400CB200130B500FE
:100900000230B600B920183003178D0000308F0078
:1009100003100A300313A700092B103084002108AC
:10092000A8002008A7005F2BC830B5001F20142C9A
:02093000630062
:02400E00733FFE
:00000001FF
;PIC16F877A
;CRC=9290  CREATED="16-Nis-26 14:58"
