:1000000000308A001B2800002D3084008313000874
:10001000031918280130F800F701F70B0D28F80B29
:100020000C284A30F700F70B13281628800B0A28F3
:100030008A110A125D2883161F149F141F159F1121
:1000400007309C0083131F3083053F308312A000CC
:100050000630A1005B30A2004F30A3006630A40040
:100060006D30A5007D30A6000730A700FF30A80046
:10007000EF30A90006308316850000308600860127
:100080008312860183168501043083128500AA013C
:10009000AB012B08093C031C612820302B0784008E
:1000A00083130008AC008316860183122C08860097
:1000B0000230AC00FA30AD000428AC0B5A28AB0A71
:0600C000492848286300F6
:02400E00393F38
:00000001FF
;PIC16F877A
;CRC=61F9  CREATED="26-Þub-26 14:43"
